:020000040800F2
:1000000000000120C5020008CB020008CF02000852
:1000100041030008450300088D03000800000000AC
:10002000000000000000000000000000D1160008E1
:10003000D9030008000000003117000895170008D8
:10004000F1030008F1030008F1030008F1030008C0
:10005000F1030008F1030008F1030008F1030008B0
:10006000F1030008F1030008F1030008F1030008A0
:10007000F1030008F1030008F1030008F103000890
:10008000F1030008F1030008F1030008000000007C
:10009000000000000000000000000000F103000864
:1000A000F1030008F1030008F1030008F103000860
:1000B000F1030008F1030008F1030008F103000850
:1000C000F1030008F1030008F1030008F103000840
:1000D000F1030008F1030008F1030008000000002C
:1000E000F1030008F1030008F1030008000000001C
:1000F000000000000000000000000000F103000804
:1001000000000000F1030008F1030008F1030008FB
:1001100000000000000000000000000000000000DF
:10012000F1030008F1030008F1030008F1030008DF
:10013000F1030008000000000000000000000000C3
:10014000000000000000000000000000F1030008B3
:10015000F1030008F1030008F1030008F1030008AF
:10016000F1030008F1030008000000000000000097
:10017000000000000000000000000000000000007F
:1001800000000000F1030008000000000000000073
:10019000F103000800B583B000F046FE384B394A41
:1001A0001360394A1360394900E02146384B9942BF
:1001B0000BD20A684B6801F10C0488689842F4D9A4
:1001C0001168196004330432F8E72E4B1A68314B7A
:1001D0009A4200D0FEE72C4B1A682F4B9A42F9D175
:1001E000274B2E4A13602E4A13602E4B05E0002049
:1001F000106004329342FAD80B462B4A934204D241
:10020000194651F8082B5B68F4E7244B1B6813B9B7
:10021000234B1B6803B1FEE701F082F8694601A891
:1002200000F094FD214C224BE41AA4100025AC42AE
:1002300014DC204C204BE41AA4100025AC4213DC43
:100240000099019801F0B8F805461C4C1C4BE41AC3
:10025000A410002C0EDC284600F04AFD144B53F885
:10026000253098470135E2E7134B53F8253098477E
:100270000135E3E7013C124B53F824309847E8E797
:10028000BABADECA000000207C000020F403000897
:100290000C040008785634123254769880000020FE
:1002A0004C2200200C0400081C0400081C04000858
:1002B0001C0400081C0400081C0400081C0400089E
:1002C0001C04000808B5FFF765FF00BEFEE71EF03E
:1002D000040F0CBFEFF30880EFF309807146414A29
:1002E00010472DE9F04182B004468846124B5E6B00
:1002F0009F6B9D6A1B6B13F0020F03D00E4BDB6AE2
:10030000002B0CDB0D4800F033FDCDF800803B46A0
:1003100032462946204600F099FD00BEFEE74BF626
:10032000AB6100F00DFE0028ECD0034B4FF0004213
:10033000DA6202B0BDE8F08100ED00E0A430000810
:1003400000BEFEE71EF0040F0CBFEFF30880EFF3D2
:1003500009807146244A10472DE9F04182B00446D5
:100360008846084B5E6B9F6B9D6A074800F000FD56
:10037000CDF800803B4632462946204600F066FD17
:1003800000BEFEE700ED00E0B43000081EF0040FF0
:100390000CBFEFF30880EFF309807146134A104752
:1003A0002DE9F04182B004468846084B5E6B9F6B96
:1003B0009D6A074800F0DCFCCDF800803B463246E1
:1003C0002946204600F042FD00BEFEE700ED00E0B9
:1003D000C030000800BEFEE700BEFEE700BEFEE73C
:1003E00070470000E302000859030008A103000859
:0403F00000BEFEE766
:1003F4004C31000800000020800000204C3100082F
:100404000000001000000010800000205022002096
:080414000000001000000010C0
:1004200010B50446074B1868074BA3FB0030800942
:1004300000F090F8002221464FF0FF3000F044F821
:10044000002010BD0C000020D34D621008B50B4BEE
:100450001A6842F400721A601A6842F480621A60E4
:100460001A6842F480721A60032000F00FF80F201F
:10047000FFF7D6FF00F0EAFF002008BD003C024075
:10048000014B1868704700BF4422002010B5044695
:10049000C31E042B0FD80A4AD36823F4E0631B045D
:1004A0001B0C240204F4E064234343F0BF6343F4D1
:1004B0000033D36010BDA421024800F04FFCEAE7EE
:1004C00000ED00E0D42E000870B505460C46164637
:1004D0000F2A25D80F2C28D81B4BDB68C3F3022327
:1004E000C3F10702042A28BF0422191D062921D9B5
:1004F000033B4FF0FF3101FA02F224EA02049C4070
:1005000001FA03F326EA03063443002D14DB240129
:10051000E4B205F1604505F5614585F8004370BD1D
:10052000BC210A4800F01AFCD4E7BD21074800F0BE
:1005300015FCD1E70023DCE705F00F052401E4B248
:10054000034B5C55EBE700BF00ED00E0D42E000844
:1005500014ED00E00138B0F1807F0AD2064B5860FC
:10056000064AF02182F823100020986007221A60C2
:1005700070470120704700BF10E000E000ED00E090
:1005800010B50446042800D038B9042C0BD0094A11
:10059000136823F00403136010BD40F2B311064842
:1005A00000F0DCFBF1E7034A136843F00403136037
:1005B000F2E700BF10E000E0D42E000830B583B0B1
:1005C000044603680F2B29D8236813F0010F3DD090
:1005D0006368012B01D9052B25D1A34B9B6803F040
:1005E0000C03042B29D0A04B9B6803F00C03082BB1
:1005F0001ED022799D4B1A706368002B50D0FFF7F4
:100600003FFF0546984B1B6813F4003F1ED1FFF7D0
:1006100037FF401B6428F5D90320E3E1F521944816
:1006200000F09CFBD0E7FA21914800F097FBD4E75B
:100630008D4B5B6813F4800FDBD08B4B1B6813F47E
:10064000003F03D06368002B00F0C981236813F0DA
:10065000020F5DD0E368012B31D823691F2B34D8FA
:10066000814B9B6813F00C0F3AD07F4B9B6803F0D3
:100670000C03082B2FD0E368002B74D07D4B012294
:100680001A60FFF7FDFE0546774B1B6813F0020F5B
:100690005AD1FFF7F5FE401B0228F5D90320A1E14E
:1006A000FFF7EEFE0546704B1B6813F4003FCDD0FC
:1006B000FFF7E6FE401B6428F5D9032092E14FF4D2
:1006C00096716B4800F04AFBC7E740F22D1168486D
:1006D00000F044FBC4E7644B5B6813F4800FCAD19D
:1006E000614B1B6813F0020F04D0E368012B01D0AB
:1006F000012077E15C48036823F0F8032169F822C0
:1007000092FAA2F2B2FA82F201FA02F21343036001
:10071000236813F0080F50D06369012B35D8636943
:10072000002B38D0544B01221A60FFF7A9FE054672
:100730004D4B5B6F13F0020F3FD1FFF7A1FE401B43
:100740000228F5D903204DE14748036823F0F80358
:100750002169F82292FAA2F2B2FA82F201FA02F2C6
:1007600013430360D4E7434B00221A60FFF788FE6F
:1007700005463D4B1B6813F0020FC9D0FFF780FE02
:10078000401B0228F5D903202CE140F26D113848B6
:1007900000F0E4FAC3E7384B00221A60FFF770FE5E
:1007A0000546314B5B6F13F0020F06D0FFF768FE72
:1007B000401B0228F5D9032014E1236813F0040F2D
:1007C00060D0A368012B01D9052B1FD10023019311
:1007D000254B1A6C42F080521A641B6C03F0805354
:1007E0000193019B254A136843F480731360FFF75C
:1007F00047FE0546214B1B6813F4807F0CD1FFF7A1
:100800003FFE401B0228F5D90320EBE040F2971190
:10081000174800F0A3FAD9E7227A194B1A70A36897
:1008200083B1FFF72DFE05460F4B1B6F13F0020F30
:1008300028D1FFF725FE401B41F288339842F3D9B7
:100840000320CFE0FFF71CFE0546074B1B6F13F09C
:10085000020F17D0FFF714FE401B41F28833984275
:10086000F3D90320BEE000BF003802400238024046
:10087000182F000800004742800E474200700040D9
:1008800070380240A369022B39D8A369002B00F00D
:10089000A880564A926802F00C02082A00F0A48050
:1008A000022B40F08880E36913B1B3F5800F2CD19F
:1008B000236A3F2B2FD8636A323BB3F5BF7F30D812
:1008C000A36A022B05D0042B03D0062B01D0082BE2
:1008D0002DD1E36A043B0B2B2FD8454B00221A6025
:1008E000FFF7CEFD0546414B1B6813F0007F2AD071
:1008F000FFF7C6FD401B0228F5D9032072E04FF434
:10090000E6713C4800F02AFABFE740F2D5113948B9
:1009100000F024FACCE74FF4EB71364800F01EFAF1
:10092000C9E740F2D711334800F018FAC8E74FF48E
:10093000EC71304800F012FACBE740F2D9112D48A3
:1009400000F00CFAC9E7E369226A1343616A47F6CB
:10095000C07292FAA2F2B2FA82F201FA02F21343E0
:10096000A26A5208013A4FF4403191FAA1F1B1FA6A
:1009700081F18A401343E16A4FF0706292FAA2F269
:10098000B2FA82F201FA02F21343184A5360184B8A
:1009900001221A60FFF774FD0446144B1B6813F024
:1009A000007F06D1FFF76CFD001B0228F5D903205C
:1009B00018E0002016E00E4B00221A60FFF760FDE1
:1009C00004460A4B1B6813F0007F06D0FFF758FD62
:1009D000001B0228F5D9032004E0002002E00120DA
:1009E00000E0002003B030BD0120FBE700380240EA
:1009F00060004742182F0008214B9B6803F00C034E
:100A0000042B3AD0082B01D01E4870471C4B586865
:100A100000F03F005B6813F4800F1ED01A4AB2FB4F
:100A2000F0F2174B586847F6C073184093FAA3F3D7
:100A3000B3FA83F3D84000FB02F0114B5B6803F478
:100A400040334FF4403292FAA2F2B2FA82F2D3402B
:100A500001335B00B0FBF3F070470A4AB2FBF0F2DF
:100A6000074B586847F6C073184093FAA3F3B3FADC
:100A700083F3D84000FB02F0DFE70348704700BF74
:100A8000003802400024F40040787D0170B504462F
:100A90000D460368013B0E2B11D8072D15D88C4B42
:100AA0001B6803F00F03AB4215D2EBB2884A1370F8
:100AB000136803F00F03AB420DD0012070BD40F26C
:100AC0003721844800F04AF9E7E74FF40E71814876
:100AD00000F044F9E3E7236813F0020F18D0A3688D
:100AE0007BB1802B0DD0902B0BD0A02B09D0B02B3D
:100AF00007D0C02B05D0D02B03D0E02B01D0F02B9A
:100B000037D1754A936823F0F003A1680B439360D3
:100B1000236813F0010F73D06368032B2FD8636829
:100B2000012B32D09A1E012A36D96B4A126812F074
:100B3000020F00F0CA8068498A6822F0030213435A
:100B40008B60FFF79DFC06466368012B2BD0022BC0
:100B500038D0032B45D0604B9B6813F00C0F4FD05F
:100B6000FFF78EFC801B41F288339842F3D90320B3
:100B7000A4E740F24F21574800F0F0F8C1E740F2F7
:100B80005621544800F0EAF8C9E7534A126812F4B3
:100B9000003FD0D1012091E74F4A126812F0007F48
:100BA000C9D101208AE74C4B9B6803F00C03042B4E
:100BB00026D0FFF765FC801B41F288339842F2D9BA
:100BC00003207BE7444B9B6803F00C03082B17D0F2
:100BD000FFF756FC801B41F288339842F2D903207C
:100BE0006CE73D4B9B6803F00C030C2B08D0FFF720
:100BF00047FC801B41F288339842F2D903205DE71D
:100C0000334B1B6803F00F03AB4209D9EAB2304BF8
:100C10001A701B6803F00F03AB4201D001204DE7AF
:100C2000236813F0040F14D0E3685BB1B3F5805F61
:100C300008D0B3F5A05F05D0B3F5C05F02D0B3F51F
:100C4000E05F36D1244A936823F4E053E1680B4314
:100C50009360236813F0080F15D023695BB1B3F5D7
:100C6000805F08D0B3F5A05F05D0B3F5C05F02D0B8
:100C7000B3F5E05F23D1184A936823F460432169F8
:100C800043EAC1039360FFF7B7FE134B9B6803F081
:100C9000F003F02292FAA2F2B2FA82F2D3400F4AA3
:100CA000D35CD8400E4B18600F20FFF7B9FB002033
:100CB00004E74FF42D71074800F050F8C2E740F206
:100CC000BB21044800F04AF8D5E70120F6E600BF52
:100CD000003C0240182F000800380240082F00088E
:100CE0000C000020014B1868704700BF0C0000206A
:100CF000FEE7000008B5034800F052F80120FFF7B6
:100D0000F7FF00BF482F000808B503460C4A1268D9
:100D10005AB10B4A1068033323F003030344094A12
:100D2000934206D8064A136008BD054A0649116079
:100D3000EFE701F049FC0C2303604FF0FF30F3E7CD
:100D40008400002000FC00205022002001230360CA
:100D5000014B0B60704700BF0400002008B50A4635
:100D60000146024800F004F8FFF7C4FF5C2F0008BA
:100D70000FB400B583B004AB53F8042B019380216A
:100D8000064801F06FFC002803DD0146034800F02F
:100D900047F803B05DF804EB04B070478C00002006
:100DA00010B5044601F029FC0146204600F038F851
:100DB0000121024800F034F810BD00BF20300008C7
:100DC0002DE9F04385B004460F4643560BB10E465D
:100DD0001EE0042528462146ABBE0446384605B031
:100DE000BDE8F08314F9011B04AA1A4402F8101C90
:100DF0000133AB42F6D304AA1344002203F8102CAB
:100E00004FF00408E94640464946ABBE8046761B93
:100E1000002EE3D03546102E28BF10250023E8E72A
:100E200008B5FFF7CDFF08BD08B500F099F8054BF0
:100E3000054A9A60D3F8882042F47002C3F88820EB
:100E400008BD00BF00ED00E000000008F8B5044652
:100E50000D4617461E462748FFF78AFF2168264899
:100E6000FFF786FF61682548FFF782FFA1682448E5
:100E7000FFF77EFFE1682348FFF77AFF21692248E8
:100E8000FFF776FF61692148FFF772FFA1692048EB
:100E9000FFF76EFFE1691F48FFF76AFF1E48FFF783
:100EA00067FF29461D48FFF763FF1D4CE16A1D4897
:100EB000FFF75EFF216B1C48FFF75AFFE16B1B48F1
:100EC000FFF756FF15F0800F0AD115F4004F0CD133
:100ED0001748FFF74DFF06991648FFF749FFF8BD81
:100EE00039461548FFF744FFEFE731461348FFF74F
:100EF0003FFFEDE7882F0008982F0008A82F000873
:100F0000B82F0008C82F0008D82F0008E82F0008C5
:100F1000F82F0008083000081830000824300008B6
:100F200000ED00E034300008443000085430000880
:100F3000843000088C3000086430000874300008E9
:100F400083691A888A4201D0002070470268033AF8
:100F5000012A03D8023383610120704700207047C3
:100F60000F49D1F8883043F47003C1F888300D4B35
:100F70001A6842F001021A60002098601A6822F094
:100F8000847222F480321A60074A5A601A6822F486
:100F900080221A60D8604FF000638B60704700BFFA
:100FA00000ED00E00038024010300024224B9B6826
:100FB00003F00C03042B14D0082B16D01BB11F4BCD
:100FC0001F4A1A6002E01D4B1D4A1A601A4B9B68AB
:100FD000C3F303131B4AD15C184A1368CB40136058
:100FE0007047164B184A1A60F0E7134B5A685B6853
:100FF00003F03F0312F4800F13D0134AB2FBF3F255
:101000000D4B5B68C3F3881303FB02F30A4A526873
:10101000C2F3014201325200B3FBF2F3074A1360FC
:10102000D4E7074AB2FBF3F2034B5B68C3F38813C0
:1010300003FB02F3EAE700BF003802400C00002087
:101040000024F400D030000840787D01034620B928
:10105000A1F10D00C0B202280ED9012B08D010B4A6
:10106000012B18D04BB1022B23D05DF8044B7047F5
:10107000C81EC0B20128F2D87047154B1C68480042
:101080000321814024EA010119601C6802FA00F181
:1010900021431960E9E70F4B1C6848000321814098
:1010A00024EA010119601C6802FA00F12143196069
:1010B000DBE7094B1868490003248C4020EA040050
:1010C0001860186802FA01F101431960CDE700BF0A
:1010D00000000240000402400008024030B4012831
:1010E0001CD018B1022831D030BC70472348446866
:1010F00001258D4024EA0504446044688A40224367
:10110000426082684C000321A14022EA0102826011
:10111000826803FA04F111438160E5E718484468E6
:1011200001258D4024EA0504446044688A40224336
:10113000426084684A000321914024EA01018160F1
:10114000846803FA02F121438160CDE70D484468C9
:1011500001258D4024EA0504446044688A40224306
:1011600042608268490003248C4022EA04028260C3
:10117000826803FA01F111438160B5E70000024083
:101180000004024000080240012817D010B10228D4
:1011900027D07047012A0AD0002A2DD11A48436966
:1011A000012202FA01F123EA010141617047164868
:1011B000436902FA01F1194341617047012A09D0DC
:1011C000D2B912484369012202FA01F123EA01016E
:1011D000416170470D48436902FA01F119434161C9
:1011E0007047012A09D03AB909484369012202FA35
:1011F00001F123EA0101416170470548436902FAA0
:1012000001F11943416170470000024000040240AF
:1012100000080240074A136843F001031360054BBE
:101220001B6813F0020FFAD0024A936823F00303FD
:101230009360704700380240032822D8DFE800F0AE
:10124000020A121A0F48036B012202FA01F1194334
:10125000016370470B48436B012202FA01F1194305
:10126000416370470748036C012202FA01F11943F8
:10127000016470470348436C012202FA01F11943EB
:10128000416470470038024070B594B00024019466
:10129000204B1A6C42F080521A641B6C03F080538E
:1012A0000193019B02941C4B1A6842F440421A605D
:1012B0001B6803F440430293029B012308930993A4
:1012C0004FF480030F93192310934FF4A8731193D5
:1012D000042612960723139302250E9508A8FFF7FC
:1012E0006DF90F230393049505944FF480530693EF
:1012F0000794294603A8FFF7C9FBFFF7F3FC074B48
:10130000A3FB00308009FFF725F93046FFF738F9D5
:1013100014B070BD0038024000700040D34D621020
:1013200008B5FFF793F8FFF7AFFFFFF73FFE08BDE3
:1013300000B583B001238DF8073000238DF8063007
:101340000A4C002305220DF10601206800F0C0FBC5
:101350000F2001F021F8002305220DF1070120687C
:1013600000F0B6FB0A2001F017F8E9E714010020AD
:1013700000B583B000238DF8073007E00022114646
:101380001046FFF701FF0A2001F006F805220DF1D3
:101390000701084B186800F027FC9DF80730002B68
:1013A000ECD0012BEFD1012200210846FFF7ECFE23
:1013B000E9E700BF1401002000B583B0FFF72AFF62
:1013C00000210846FFF738FF012200210846FFF7F9
:1013D0003DFE00231A4619461846FFF77FFE0122FC
:1013E00011460020FFF732FE00231A46012118465D
:1013F000FFF774FE0E4B019301230093002380221C
:101400000C490D4800F008FE0C4B01930223009399
:10141000002380220A490B4800F0FEFD002204212F
:101420000A2000F02DFB084B186000F027FEFEE7B5
:101430000C010020E03000083113000810010020EA
:10144000F8300008711300081401002070470000F4
:10145000124A12F0070F1ED0D11D21F00701C1F56D
:10146000005313440A460E480260002141601344B1
:10147000083B23F007030B48036059601960991A71
:1014800051601360084B1960084B1960084B4FF00E
:1014900000421A6070474FF40053E4E71C0100203B
:1014A00030210020180100202421002020210020CC
:1014B0001C21002010B4134A00E01A46136883422E
:1014C000FBD35168541884420AD041684418A3429F
:1014D0000BD00360904200D010605DF8044B704761
:1014E0004068014451601046EFE7074C2468A3426E
:1014F00006D05B681944416013681B680360E9E724
:101500000460E7E7302100201801002038B50446C8
:1015100000F0EAFD304B1B68DBB1304B1B681C420E
:101520004DD1631E13F10A0F4BD804F1080313F0D9
:10153000070F05D023F0070208329A4243D9134619
:10154000002B42D0264A12689A4240D325490C68A3
:1015500004E0FFF77DFFE0E72146144662689A4207
:1015600002D22268002AF7D11B4A1268A24230D068
:101570000D68083522680A606268D21A102A18D8E5
:10158000626817490B689B1A0B60174909688B4200
:1015900001D215490B60114B1B6813436360002394
:1015A0002360124A13680133136000F053FE28468B
:1015B00038BDE01842606360FFF77CFFE0E700257C
:1015C000F3E70025F1E70025EFE70025EDE700252B
:1015D000EBE70025E9E700BF180100201C210020EF
:1015E000202100203021002024210020282100205B
:1015F00018B338B50446A0F1080550F8042C0F497B
:1016000009680A4202D050F8080C00B138BD22EA3D
:10161000010244F8042C00F067FD54F8041C084A49
:1016200013680B4413602846FFF744FF054A13680C
:101630000133136000F00EFEE8E770471C21002024
:10164000202100202C21002082B0002301934FF0A4
:10165000BF0383F31188BFF36F8FBFF34F8F019BDD
:10166000002BFCD002B0704708480068006880F387
:1016700008884FF0000080F3148862B661B6BFF3AB
:101680004F8FBFF36F8F00DF00BF000008ED00E059
:10169000DFF80C00016841F4700101607047000040
:1016A00088ED00E04FF0807340F8043C21F0010128
:1016B00040F8081C054B40F80C3C40F8202C6FF01B
:1016C000020340F8243C4438704700BF4916000824
:1016D000074B19680868B0E8F04F80F30988BFF33A
:1016E0006F8F4FF0000080F311887047AFF30080D8
:1016F000382100204FF0BF0383F31188BFF36F8FB1
:10170000BFF34F8F024A136801331360704700BF65
:1017100010000020034A1368013B13600BB983F3E8
:101720001188704710000020000000000000000039
:10173000EFF30980BFF36F8F154B1A681EF0100F7F
:1017400008BF20ED108A20E9F04F10602DE9090054
:101750004FF0BF0080F31188BFF34F8FBFF36F8F3F
:1017600000F034FE4FF0000080F3118809BC1968C6
:101770000868B0E8F04F1EF0100F08BFB0EC108AF8
:1017800080F30988BFF36F8F704700BFAFF300800D
:101790003821002008B54FF0BF0383F31188BFF351
:1017A0006F8FBFF34F8F00F0A7FC18B1034B4FF0C2
:1017B00080521A60002383F3118808BD04ED00E015
:1017C000054B00221A6005490A60054A0549116067
:1017D00007221A60704700BF10E000E018E000E048
:1017E00014E000E03F19010010B50E4B1A6842F4F6
:1017F0007F021A601A6842F07F421A60FFF7E0FF2A
:101800000024094B1C60FFF743FF084A136843F0AC
:1018100040431360FFF728FF00F0D8FDFFF714FFE7
:10182000204610BD20ED00E01000002034EF00E065
:1018300000F1080343604FF0FF328260C360036130
:1018400000230360704700230361704730B40D68C4
:10185000B5F1FF3F02D000F1080202E0026904E0A6
:101860001A4653681C68AC42FAD953684B609960B9
:101870008A605160086103680133036030BC7047BF
:1018800003694268816891608268416851605A6862
:10189000824206D0002202611A68013A1A60186872
:1018A000704782685A60F5E710B50446FFF722FFDB
:1018B000A26BE36B9A4204D00024FFF72BFF204673
:1018C00010BD0124F9E710B50446FFF713FFA36B21
:1018D00023B10024FFF71EFF204610BD0124F9E7C5
:1018E00070B504461646856B026CEAB166B940686D
:1018F00000F070FE226C636813446360A268934238
:1019000012D3236863600FE0C06800F063FE226CAE
:101910005242E3681344E36021688B4202D2A36819
:101920001A44E260022E03D00135A563002070BD89
:10193000002DF9D0013DF7E7026C72B110B5C36814
:101940001344C3608468A34201D30368C3600C4698
:10195000C168204600F03EFE10BD704738B5054610
:10196000FFF7C8FE95F8454064B203E000F026FE9C
:10197000013C64B2002C08DD6B6A33B105F1240030
:1019800000F070FD0028F3D0F0E7FF2385F8453024
:10199000FFF7C0FEFFF7AEFE95F8444064B203E0E7
:1019A00000F00CFE013C64B2002C08DD2B6933B161
:1019B00005F1100000F056FD0028F3D0F0E7FF23FA
:1019C00085F84430FFF7A6FE38BD0000002843D05C
:1019D00038B50D460346C26B002A3FD0006C002488
:1019E000A0FB020111B91CB1002038E00124FAE784
:1019F0001C46FFF77FFE2168E26B236C03FB02109D
:101A0000A0600020A0636160013A02FB0313E36061
:101A1000FF2384F8443084F84530A5B923691BB905
:101A2000FFF778FE01201AE004F1100000F01AFD23
:101A30000028F5D00A4B4FF080521A60BFF34F8F49
:101A4000BFF36F8FECE704F11000FFF7F1FE04F134
:101A50002400FFF7EDFEE3E700207047002038BDCB
:101A600004ED00E010B5029B0C4639B11A60D86352
:101A70001C6401211846FFF7A9FF10BD1B60F6E7A3
:101A8000F0B583B0F0B104460023A1FB0067BFB9F5
:101A9000D3B901FB04F010F1490F17D817460D46D2
:101AA0004830FFF733FD064638B100903B4600F161
:101AB000480229462046FFF7D5FF304603B0F0BD67
:101AC0000123E5E70026F8E70026F6E70026F4E71D
:101AD000F0B585B004460F4601921E46002539E058
:101AE000324639462046FFF7FBFE636A6BB938B1D0
:101AF0003C4B4FF080521A60BFF34F8FBFF36F8F94
:101B0000FFF708FE012005B0F0BD04F1240000F04D
:101B1000A9FC0028F4D0334B4FF080521A60BFF379
:101B20004F8FBFF36F8FEBE7FFF7F4FD0020EAE77D
:101B300002A800F009FD012519E0002384F84430D3
:101B400021E0002384F8453023E02046FFF706FF1C
:101B500000F080FBFFF7CEFDA26BE36B9A42BFD390
:101B6000022EBDD0019B002BDED0002DE0D0FFF770
:101B7000D1FD00F0B9FAFFF7BDFD94F844305BB237
:101B8000B3F1FF3FD9D094F845305BB2B3F1FF3FDA
:101B9000D7D0FFF7BFFD01A902A800F0E1FCC8B94A
:101BA0002046FFF781FE0028CFD0019904F11000F4
:101BB00000F04AFC2046FFF7D1FE00F04BFB002866
:101BC000C8D1084B4FF080521A60BFF34F8FBFF35C
:101BD0006F8FBFE72046FFF7C1FE00F03BFB002000
:101BE00091E700BF04ED00E0F0B585B004460F4674
:101BF000019200263CE039462046FFF79DFE013D5C
:101C0000A563236923B9FFF785FD012005B0F0BD69
:101C100004F1100000F026FC0028F4D0344B4FF003
:101C200080521A60BFF34F8FBFF36F8FEBE7FFF760
:101C300071FD0020EAE702A800F086FC012621E001
:101C4000002384F8443029E0002384F845302BE059
:101C50002046FFF783FE00F0FDFA09E02046FFF77B
:101C60007DFE00F0F7FA2046FFF72DFE00283DD15B
:101C7000FFF740FDA56B002DBDD1019B002BD6D0F9
:101C8000002ED8D0FFF746FD00F02EFAFFF732FD08
:101C900094F844305BB2B3F1FF3FD1D094F84530B3
:101CA0005BB2B3F1FF3FCFD0FFF734FD01A902A82B
:101CB00000F056FC0028D1D12046FFF704FE002892
:101CC000C6D0019904F1240000F0BEFB2046FFF7C6
:101CD00045FE00F0BFFA0028CAD1054B4FF08052F4
:101CE0001A60BFF34F8FBFF36F8FC1E700208DE7FE
:101CF00004ED00E0074B1B681B6833B1054B1B6804
:101D0000DB681A68044B1A607047034B4FF0FF32D0
:101D10001A6070473C210020E821002010B50446DD
:101D2000006BFFF765FC2046FFF762FC10BD2DE954
:101D3000F84380469946089D099F0A9C266B02F14C
:101D40008042013A06EB820626F00706A1B30A4656
:101D500000230F2B07D8D056E11881F83400D15654
:101D600009B10133F5E7002384F84330042D00D98D
:101D70000425E562201DFFF766FD04F11800FFF75A
:101D800062FD2461C5F10505A5616462042200219C
:101D900004F1440000F029FC0122002104F1480074
:101DA00000F023FC4A4641463046FFF77BFC2060AA
:101DB00007B13C60BDE8F883002384F83430D5E7F0
:101DC00038B5002407E004EB840293000E48184461
:101DD000FFF72EFD0134042CF5D90C4D2846FFF7F2
:101DE00027FD0B4C2046FFF723FD0A48FFF720FD97
:101DF0000948FFF71DFD0948FFF71AFD084B1D6054
:101E0000084B1C6038BD00BF44210020BC210020CD
:101E1000D0210020F4210020202200200C220020CC
:101E20003C2100204021002038B50446FFF762FC29
:101E3000284A136801331360274B1B685BB1274B9B
:101E40001B686BB9244B1B68DA6AE36A9A4207D8AD
:101E5000214B1C6004E0204B1C601368012B36D022
:101E60001F4A136801331360E36A01229A401D4937
:101E7000086802430A601C4A03EB8303990011447B
:101E80004B68A3609968E1609868211D4160996082
:101E9000E06A83001D18A900551865615158013189
:101EA000034498001150FFF735FC0C4B1B686BB1D5
:101EB000094B1B68DA6AE36A9A4207D20B4B4FF070
:101EC00080521A60BFF34F8FBFF36F8F38BDFFF79B
:101ED00077FFC5E7A8210020382100200822002034
:101EE000B4210020B82100204421002004ED00E0AE
:101EF0000F4B1B68D3B110B5FFF7FCFB0D4BDB6834
:101F0000DC68201DFFF7BCFC0B4A1368013B136023
:101F1000074A1368013B1360FFF7FCFB2046FFF7FD
:101F2000FDFE034B1B68002BE6D110BD704700BFC0
:101F3000AC21002020220020A821002008B5FFF7B6
:101F4000D7FF064B1B68012BF9D9054B4FF0805288
:101F50001A60BFF34F8FBFF36F8FF0E7442100206B
:101F600004ED00E070B504460E46244B1D68244B7A
:101F700018680430FFF784FC50B9214B1B68DA6AFB
:101F8000012303FA02F21F490B6823EA02030B60E4
:101F9000B4F1FF3F13D02C44194B1B685C60A54281
:101FA00024D8194B1868164B19680431FFF74EFCFA
:101FB000164B1B68A34220D9144B1C601DE0002E59
:101FC000E9D0134A51680E4B1868816018688C6814
:101FD000C46018688C6804306060186804308860D9
:101FE0001B685A6113680133136006E0094B1868D7
:101FF000034B19680431FFF729FC70BD342200201F
:1020000038210020B82100203C210020E8210020B8
:102010000C220020402100202DE9F04385B0074626
:102020008846154699469000FFF770FAF8B10646C3
:102030004C20FFF76BFA0446A8B10663D4B1002325
:10204000039302940D9B01930C9B00934B462A46ED
:1020500041463846FFF76BFE2046FFF7E5FE0120BC
:1020600005B0BDE8F0833046FFF7C2FAE6E74FF06F
:10207000FF30F5E74FF0FF30F2E7000000B583B026
:10208000124B019300230093802211491148FFF75E
:10209000C3FF012804D0104B1B6803B05DF804FB9C
:1020A0004FF0BF0383F31188BFF36F8FBFF34F8FE0
:1020B0000A4B4FF0FF321A60094B01221A60094B9C
:1020C00000221A60FFF790FBE5E700BFE421002043
:1020D000103100083D1F000814000020E8210020F6
:1020E0000822002034220020024A136801331360C2
:1020F000704700BFB0210020F8B54B4B1B68002B88
:1021000040F08C80494B1C6801341C60ACB1484BDA
:102110001B68A3421ED90020464B1B68DB6A03EBF9
:1021200083039A00444B9B58012B00D90120434B59
:102130001B68002B77D0012075E0414A1168414BA4
:10214000186810601960404A136801331360FFF784
:10215000D1FDDCE7002034E0354B4FF0FF321A6050
:10216000DAE7334B1A60D7E7D968516040E00021C5
:102170009962116801391160DA6A01219140334D89
:102180002F68394329602C4902EB820295000D44E7
:102190006A689A609568DD6095686E609660DE6A30
:1021A000B2009719BD004F195F614D590135324496
:1021B00096008D51DA6A1F4B1B68DB6A9A4200D386
:1021C00001201F4B1B681B68002BC5D01C4B1B68D4
:1021D000DB68DB685A689442C3D35A699968DD6842
:1021E0008D60D9689D684D6051681E1DB142BBD09D
:1021F000002159611168013911609A6A002ABBD027
:10220000D9691D6A8D60196ADD694D60556803F1F1
:1022100018018D42ABD1196A5160A8E70C4A1368C6
:10222000013313600020F8BDB021002034220020CB
:10223000E8210020382100204421002038220020FD
:102240003C21002040210020EC210020B82100206A
:10225000F021002038B5FFF74DFA464B1A68013AD5
:102260001A601B68002B7DD1434B1B68002B50D09C
:102270000023424A1268002A53D0404BDB68DB68D7
:102280009A6AD969186A8860196AD869486050687A
:1022900003F1180188423ED000219962116801398A
:1022A00011605A699968D8688860D96898684860E8
:1022B00051681C1DA14231D00021596111680139BA
:1022C0001160DA6A012191402D48056829430160B7
:1022D0002C4902EB82029000084442689A609068A0
:1022E000D860906844609460DC6AA2001519A80068
:1022F0000D185D6108580130224494000851D96AD4
:10230000214A1268D26A9142B3D3204A0121116056
:10231000AFE7002427E0196A5160BDE7D968516032
:10232000CAE70BB1FFF7E6FC194B1C6874B9174BF1
:102330001B68E3B1174B4FF080521A60BFF34F8F09
:10234000BFF36F8F01240EE0013C07D0FFF7D4FEEE
:102350000028F9D00D4B01221A60F5E70C4B002242
:102360001A60E4E70024FFF7D5F9204638BD0024C1
:10237000F9E700BFB0210020A8210020F4210020AF
:10238000B8210020442100203821002038220020DC
:10239000F021002004ED00E010B540B90A4B4FF0E9
:1023A00080521A60BFF34F8FBFF36F8F10BD04468A
:1023B000FFF79AFE00212046FFF7D4FDFFF74AFF02
:1023C0000028EBD0F2E700BF04ED00E0194B1B68DA
:1023D00023BB10B4184B00221A60184B1B68B3FAC9
:1023E00083F3DBB2C3F11F0315489A00D418A10090
:1023F00001444C6864684C601A44910008310844F8
:1024000084420FD003EB83039A000D4B13445B68A7
:10241000DA680C4B1A605DF8044B7047064B0122DA
:102420001A607047606803EB83029100044A0A4413
:102430005060E7E7B021002038220020B8210020BA
:10244000442100203821002010B50C46044B1968A7
:102450001831FFF7FBF901212046FFF783FD10BD7E
:102460003821002030B4C368DB689A6AD969186AD9
:102470008860196AD8694860516803F11800814280
:1024800041D000219962116801391160284A12680F
:10249000002A3ED15A699968D8688860D9689868D6
:1024A000486051681C1DA14230D00021596111685B
:1024B00001391160DA6A012191401E4805682943FB
:1024C00001601D4902EB82029000084442689A6054
:1024D0009068D860906844609460DC6AA200151926
:1024E000A8000D185D61085801302244940008517D
:1024F000DA6A124B1B68DB6A9A4217D90120104B2B
:10250000186030BC7047196A5160BAE7D9685160E9
:10251000CBE70C4A5168D9618C681C628C6860609A
:1025200088609A62116801311160E1E70020E8E7F4
:10253000B0210020B82100204421002038210020B3
:1025400038220020F4210020034B1B680360034B5A
:102550001B684360704700BFEC210020342200203C
:10256000F8B504460D46FFF7C5F8124B1A686168C6
:10257000501A2B68B3F1FF3F1AD027680E4E366809
:10258000B74201D0914208D983420AD800232B6078
:102590000124FFF7BFF82046F8BD00232B6001247B
:1025A000F7E71B1A2B602046FFF7CEFF0024F0E769
:1025B0000024EEE734220020EC210020014B012210
:1025C0001A60704738220020014B1868704700BF1E
:1025D0001800002010B5431E0A44914200D110BDDE
:1025E00011F8014B03F8014FF7E702440346934209
:1025F00000D1704703F8011BF9E7034613F8012BDC
:10260000002AFBD1181A0138704730B5141E054650
:102610009BB0184605DA8B232B604FF0FF301BB0C0
:1026200030BD4FF40273ADF80C3014BF04F1FF332A
:102630002346029305934FF6FF7300910491ADF882
:102640000E3002461E9B6946284600F073F8431C74
:10265000BCBF8B232B60002CE1D0009B00221A70A2
:10266000DDE7000007B5009313460A46014603481C
:102670000068FFF7CAFF03B05DF804FB18000020F4
:102680002DE9F0478E689E4282460C469046994658
:1026900037D88A8912F4906F31D0256809696F1A8A
:1026A0006569022305EB450595FBF3F509F1010387
:1026B0003B449D4238BF1D46530530D5294600F0A6
:1026C0006FFB064650B90C23CAF80030A38943F0CB
:1026D0004003A3814FF0FF30BDE8F0873A462169FF
:1026E000FFF778FFA38923F4906343F08003A3816D
:1026F000266165613E44ED1B2660A5604E464E4551
:1027000000D94E4632464146206800F0E1FAA368FF
:102710009B1BA36023681E4426600020DCE72A463A
:1027200000F098FB06460028E2D12169504600F0EF
:10273000E9FAC8E72DE9F04F9DB0804603938B89F5
:102740001D060C4616460FD50B696BB9402100F0EB
:1027500027FB2060206128B90C23C8F800304FF017
:10276000FF30C7E0402363610023099320238DF8E5
:10277000293030238DF82A304FF0010B37463D4683
:1027800015F8013B0BB1252B3ED1B7EB060A0BD058
:102790005346324621464046FFF772FF013000F0B3
:1027A000A480099B534409933B78002B00F09D8043
:1027B00000234FF0FF32CDE90523049307938DF8F2
:1027C00053301A932F46052217F8011B4F4800F08B
:1027D0002FFA049BD0B9D90644BF20228DF853208C
:1027E0001A0744BF2B228DF853202A782A2A15D0A5
:1027F000079A2F4600200A25394611F8013B303B45
:10280000092B4DD9B8B10FE02F46B8E73F4A801ADF
:102810000BFA00F0184304903D46D3E7039A111DCC
:1028200012680391002A01DB079204E0524243F050
:102830000203079204933B782E2B0CD17B782A2B32
:1028400033D1039B1A1D1B680392002BB8BF4FF0B6
:10285000FF33023705932E4D39780322284600F0C6
:10286000E7F938B14023401B03FA00F0049B03430F
:1028700001370493397827488DF8281006227E1CEA
:1028800000F0D6F9002838D0234B13BB039B073345
:1028900023F0070308330393099B4B4409936DE727
:1028A00005FB023201200F46A6E7002301370593FE
:1028B00019460A25384610F8012B303A092A03D95F
:1028C000002BC8D00591C6E705FB0121012307466F
:1028D000F0E703AB00932246104B04A94046AFF348
:1028E0000080B0F1FF3F8146D6D1A3895B063FF55A
:1028F00036AF09981DB0BDE8F08F03AB00932246B8
:10290000064B04A9404600F081F8EAE718310008B8
:102910001E31000822310008000000008126000856
:102920002DE9F04791461F468A680B69DDF8208043
:102930009342B8BF1346C9F8003091F843200646C9
:102940000C4612B10133C9F800302368990642BF22
:10295000D9F800300233C9F80030256815F00605B3
:1029600007D104F1190AE368D9F800209B1AAB4299
:1029700028DC94F843302268003318BF0123920604
:102980002DD404F1430239463046C047013020D0EF
:102990002368E568D9F8002003F00603042B08BF7C
:1029A000AD1AA36822690CBF25EAE575002593429C
:1029B000C4BF9B1AED184FF000091A344D451AD1C7
:1029C000002008E00123524639463046C047013016
:1029D00003D14FF0FF30BDE8F0870135C3E7E118C0
:1029E0005A1C302081F84300224494F8451082F8A4
:1029F00043100233C5E70123224639463046C0471B
:102A00000130E6D009F10109D8E700002DE9F043D3
:102A100001F1430C0C46097E85B06E291746064627
:102A200098460C9A00F0B38022D8632936D00AD891
:102A3000002900F0B980582900F0838004F1420594
:102A400084F8421032E0642901D06929F6D1206867
:102A50001368050603F104012AD51B681160002BD9
:102A600003DA2D225B4284F843206F480A2239E0C2
:102A7000732900F09D8008D86F2920D07029DDD1FE
:102A8000236843F02003236003E0752917D07829D9
:102A9000D4D1782384F84530644855E01368191D73
:102AA0001B68116004F1420584F8423001238CE078
:102AB0001B68116010F0400F18BF1BB2CFE71368FE
:102AC0002568181D1060280601D51B6802E06806FD
:102AD000FBD51B8854486F2914BF0A220822002105
:102AE00084F843106568A560002DC0F295802168C8
:102AF00021F004012160002B3DD1002D40F08E809B
:102B00006546082A0BD12368DB0708D5236962686C
:102B10009A42DEBF302305F8013C05F1FF35ACEBEE
:102B200005032361CDF800803B4603AA21463046C9
:102B3000FFF7F6FE01304DD14FF0FF3005B0BDE894
:102B4000F083394884F84510136821681D1D1B68FF
:102B500015600A060BD5CA0744BF41F02001216069
:102B60001BB9226822F0200222601022B7E74D062E
:102B700048BF9BB2EFE76546B3FBF2F102FB1133AE
:102B8000C35C05F8013D0B460029F5D1B9E7136890
:102B900025686169181D106028061B6801D5196039
:102BA00002E06A06FBD51980002323616546B9E778
:102BB0001368191D11601D6862680021284600F025
:102BC00037F808B1401B606063682361002384F814
:102BD0004330A7E723692A4639463046C0470130CB
:102BE000AAD023689B0713D4E068039B9842B8BF20
:102BF0001846A3E701234A4639463046C04701300C
:102C00009AD00135E368039A9B1AAB42F2DCEBE7FA
:102C1000002504F11909F5E7002BACD1037884F8FD
:102C2000423004F142056CE7293100083A310008CE
:102C300001F0FF01102A2BDB10F0070F08D010F86D
:102C4000013B013A8B422DD010F0070F42B3F6D171
:102C5000F0B441EA012141EA014122F007047FF08A
:102C600000070023F0E80256083C85EA010586EAE1
:102C7000010685FA47F5A3FA87F586FA47F6A5FA1D
:102C800087F68EB9EED1F0BC01F0FF0102F0070229
:102C900032B110F8013B013A83EA010313B1F8D1D4
:102CA0000020704701387047002D06BF35460338B5
:102CB000073815F0010F07D1013015F4807F02BFEE
:102CC000013015F4C03F0130F0BC0138704700BF3F
:102CD000884210B501EB020307D8421E99420AD080
:102CE00011F8014B02F8014FF8E78342F5D981183A
:102CF000D21AD34200D110BD13F8014D01F8014D95
:102D0000F7E7000038B50546002945D051F8043CE6
:102D10000C1F002BB8BFE41800F0D2F81F4A13684C
:102D2000104633B9636014602846BDE8384000F0AF
:102D3000C8B8A3420CD921686218934204BF1A682C
:102D40005B68636004BF521822600460ECE71346BE
:102D50005A680AB1A242FAD919685818A0420BD190
:102D600020680144581882421960DDD11068526809
:102D70005A6001441960D7E702D90C232B60D3E7CE
:102D8000206821188A4204BF11685268626004BF3B
:102D9000091821605C60C7E738BD00BF3C220020F5
:102DA00070B5CD1C25F0030508350C2D38BF0C255A
:102DB000002D064601DBA94203D90C233360002015
:102DC00070BD00F07DF8214A1468214691B9204C6D
:102DD00023681BB9304600F063F82060294630466E
:102DE00000F05EF8431C24D10C233360304600F021
:102DF00068F8E4E70B685B1B18D40B2B0FD90B604A
:102E0000CD50CC18304600F05CF804F10B00231DC7
:102E100020F00700C31AD3D05A42E250D0E78C42C8
:102E20004B6816BF636013600C46EBE70C464968BD
:102E3000CCE7C41C24F00304A04205D0211A30467C
:102E400000F02EF80130CFD02560DBE73C220020D7
:102E500040220020F8B5074614460E4621B9114617
:102E6000BDE8F840FFF79CBF22B9FFF74BFF2546AE
:102E70002846F8BD00F026F8A0420FD22146384679
:102E8000FFF78EFF05460028F2D031462246FFF7B5
:102E9000A1FB31463846FFF735FFE9E73546E7E75E
:102EA00038B5064C0023054608462360FDF72CFF85
:102EB000431C02D1236803B12B6038BD4822002097
:102EC0007047704751F8043C181F002BBCBF0B58CB
:102ED000C01870472E2E2F73797374656D2F73721F
:102EE000632F73746D333266342D68616C2F737485
:102EF0006D3332663478785F68616C5F636F7274CB
:102F000065782E6300000000000000000102030449
:102F100001020304060708092E2E2F7379737465C6
:102F20006D2F7372632F73746D333266342D686145
:102F30006C2F73746D3332663478785F68616C5FC0
:102F40007263632E6300000061626F727428292C23
:102F50002065786974696E672E2E2E006173736523
:102F600072745F706172616D2829206661696C6599
:102F7000643A2066696C6520222573222C206C69D6
:102F80006E652025640A0000537461636B206672CD
:102F9000616D653A0A000000205230203D20202556
:102FA0003038580A00000000205231203D202025F2
:102FB0003038580A00000000205232203D202025E1
:102FC0003038580A00000000205233203D202025D0
:102FD0003038580A0000000020523132203D2025B0
:102FE0003038580A00000000204C52203D20202597
:102FF0003038580A00000000205043203D20202592
:103000003038580A0000000020505352203D20253F
:103010003038580A000000004653522F4641523AB9
:103020000A0000002043465352203D20202530381E
:10303000580A00002048465352203D2020253038B1
:10304000580A00002044465352203D2020253038A5
:10305000580A00002041465352203D202025303898
:10306000580A0000204D4D464152203D2025303861
:10307000580A00002042464152203D202025303889
:10308000580A00004D6973630A000000204C522F5B
:103090004558435F52455455524E3D2025303858CF
:1030A0000A0000005B486172644661756C745D0AD9
:1030B000000000005B4275734661756C745D0A0028
:1030C0005B55736167654661756C745D0A0000004D
:1030D00000000000000000000102030406070809C8
:1030E0004D61737465722073656E6420636F6D6DDE
:1030F000616E647300000000536C61766520657832
:10310000656375746520636F6D6D616E6473000037
:1031100049444C4500000000232D302B2000686CF2
:103120004C006566674546470030313233343536EA
:103130003738394142434445460030313233343523
:0B314000363738396162636465660051
:10314C007856341288000020000000000024F4009F
:10315C00AAAAAAAA040000001C000020000000007B
:10316C000000000000000000000000000000000053
:10317C000000000000000000000000000000000043
:10318C000000000000000000000000000000000033
:10319C000000000000000000000000000000000023
:1031AC000000000000000000000000000000000013
:1031BC00000000000000000000000000325476986F
:040000050800019559
:00000001FF
